{
  "contractName": "VendingMachine",
  "abi": [
    {
      "inputs": [
        {
          "internalType": "uint256",
          "name": "_initialDonutPrice",
          "type": "uint256"
        }
      ],
      "stateMutability": "nonpayable",
      "type": "constructor"
    },
    {
      "inputs": [
        {
          "internalType": "address",
          "name": "",
          "type": "address"
        }
      ],
      "name": "donutBalances",
      "outputs": [
        {
          "internalType": "uint256",
          "name": "",
          "type": "uint256"
        }
      ],
      "stateMutability": "view",
      "type": "function",
      "constant": true
    },
    {
      "inputs": [],
      "name": "donutPrice",
      "outputs": [
        {
          "internalType": "uint256",
          "name": "",
          "type": "uint256"
        }
      ],
      "stateMutability": "view",
      "type": "function",
      "constant": true
    },
    {
      "inputs": [],
      "name": "owner",
      "outputs": [
        {
          "internalType": "address payable",
          "name": "",
          "type": "address"
        }
      ],
      "stateMutability": "view",
      "type": "function",
      "constant": true
    },
    {
      "stateMutability": "payable",
      "type": "receive",
      "payable": true
    },
    {
      "inputs": [
        {
          "internalType": "uint256",
          "name": "newPrice",
          "type": "uint256"
        }
      ],
      "name": "updateDonutPrice",
      "outputs": [],
      "stateMutability": "nonpayable",
      "type": "function"
    },
    {
      "inputs": [],
      "name": "getVendingMachineBalance",
      "outputs": [
        {
          "internalType": "uint256",
          "name": "",
          "type": "uint256"
        }
      ],
      "stateMutability": "view",
      "type": "function",
      "constant": true
    },
    {
      "inputs": [
        {
          "internalType": "uint256",
          "name": "amount",
          "type": "uint256"
        }
      ],
      "name": "restock",
      "outputs": [],
      "stateMutability": "nonpayable",
      "type": "function"
    },
    {
      "inputs": [
        {
          "internalType": "uint256",
          "name": "amount",
          "type": "uint256"
        }
      ],
      "name": "purchase",
      "outputs": [],
      "stateMutability": "payable",
      "type": "function",
      "payable": true
    },
    {
      "inputs": [],
      "name": "myPurchase",
      "outputs": [
        {
          "internalType": "uint256",
          "name": "",
          "type": "uint256"
        }
      ],
      "stateMutability": "view",
      "type": "function",
      "constant": true
    },
    {
      "inputs": [],
      "name": "systemBalance",
      "outputs": [
        {
          "internalType": "uint256",
          "name": "",
          "type": "uint256"
        }
      ],
      "stateMutability": "view",
      "type": "function",
      "constant": true
    },
    {
      "inputs": [
        {
          "internalType": "uint256",
          "name": "amount",
          "type": "uint256"
        }
      ],
      "name": "withdrawEther",
      "outputs": [],
      "stateMutability": "nonpayable",
      "type": "function"
    },
    {
      "inputs": [],
      "name": "ownerEtherBalance",
      "outputs": [
        {
          "internalType": "uint256",
          "name": "",
          "type": "uint256"
        }
      ],
      "stateMutability": "view",
      "type": "function",
      "constant": true
    }
  ],
  "bytecode": "0x608060405234801561001057600080fd5b5060405161108d38038061108d833981810160405281019061003291906100ff565b336000806101000a81548173ffffffffffffffffffffffffffffffffffffffff021916908373ffffffffffffffffffffffffffffffffffffffff160217905550806001819055506064600260003073ffffffffffffffffffffffffffffffffffffffff1673ffffffffffffffffffffffffffffffffffffffff168152602001908152602001600020819055505061012c565b600080fd5b6000819050919050565b6100dc816100c9565b81146100e757600080fd5b50565b6000815190506100f9816100d3565b92915050565b600060208284031215610115576101146100c4565b5b6000610123848285016100ea565b91505092915050565b610f528061013b6000396000f3fe6080604052600436106100a05760003560e01c8063c21a702a11610064578063c21a702a14610193578063ce50e609146101bc578063d5c75672146101e5578063e31e8f1514610210578063e7644d341461023b578063efef39a114610266576100a7565b80633bed33ce146100ac57806375df596a146100d55780638da5cb5b14610100578063990f7e181461012b5780639a020d8a14610156576100a7565b366100a757005b600080fd5b3480156100b857600080fd5b506100d360048036038101906100ce9190610974565b610282565b005b3480156100e157600080fd5b506100ea6103bd565b6040516100f791906109b0565b60405180910390f35b34801561010c57600080fd5b50610115610454565b6040516101229190610a0c565b60405180910390f35b34801561013757600080fd5b50610140610478565b60405161014d91906109b0565b60405180910390f35b34801561016257600080fd5b5061017d60048036038101906101789190610a65565b610546565b60405161018a91906109b0565b60405180910390f35b34801561019f57600080fd5b506101ba60048036038101906101b59190610974565b61055e565b005b3480156101c857600080fd5b506101e360048036038101906101de9190610974565b610645565b005b3480156101f157600080fd5b506101fa6106dd565b60405161020791906109b0565b60405180910390f35b34801561021c57600080fd5b50610225610724565b60405161023291906109b0565b60405180910390f35b34801561024757600080fd5b5061025061072a565b60405161025d91906109b0565b60405180910390f35b610280600480360381019061027b9190610974565b610771565b005b60008054906101000a900473ffffffffffffffffffffffffffffffffffffffff1673ffffffffffffffffffffffffffffffffffffffff163373ffffffffffffffffffffffffffffffffffffffff1614610310576040517f08c379a000000000000000000000000000000000000000000000000000000000815260040161030790610b15565b60405180910390fd5b80471015610353576040517f08c379a000000000000000000000000000000000000000000000000000000000815260040161034a90610b81565b60405180910390fd5b60008054906101000a900473ffffffffffffffffffffffffffffffffffffffff1673ffffffffffffffffffffffffffffffffffffffff166108fc829081150290604051600060405180830381858888f193505050501580156103b9573d6000803e3d6000fd5b5050565b60008060009054906101000a900473ffffffffffffffffffffffffffffffffffffffff1673ffffffffffffffffffffffffffffffffffffffff163373ffffffffffffffffffffffffffffffffffffffff161461044e576040517f08c379a000000000000000000000000000000000000000000000000000000000815260040161044590610b15565b60405180910390fd5b47905090565b60008054906101000a900473ffffffffffffffffffffffffffffffffffffffff1681565b60008060009054906101000a900473ffffffffffffffffffffffffffffffffffffffff1673ffffffffffffffffffffffffffffffffffffffff163373ffffffffffffffffffffffffffffffffffffffff1614610509576040517f08c379a000000000000000000000000000000000000000000000000000000000815260040161050090610bed565b60405180910390fd5b60008054906101000a900473ffffffffffffffffffffffffffffffffffffffff1673ffffffffffffffffffffffffffffffffffffffff1631905090565b60026020528060005260406000206000915090505481565b60008054906101000a900473ffffffffffffffffffffffffffffffffffffffff1673ffffffffffffffffffffffffffffffffffffffff163373ffffffffffffffffffffffffffffffffffffffff16146105ec576040517f08c379a00000000000000000000000000000000000000000000000000000000081526004016105e390610c7f565b60405180910390fd5b80600260003073ffffffffffffffffffffffffffffffffffffffff1673ffffffffffffffffffffffffffffffffffffffff168152602001908152602001600020600082825461063b9190610cce565b9250508190555050565b60008054906101000a900473ffffffffffffffffffffffffffffffffffffffff1673ffffffffffffffffffffffffffffffffffffffff163373ffffffffffffffffffffffffffffffffffffffff16146106d3576040517f08c379a00000000000000000000000000000000000000000000000000000000081526004016106ca90610d96565b60405180910390fd5b8060018190555050565b6000600260003373ffffffffffffffffffffffffffffffffffffffff1673ffffffffffffffffffffffffffffffffffffffff16815260200190815260200160002054905090565b60015481565b6000600260003073ffffffffffffffffffffffffffffffffffffffff1673ffffffffffffffffffffffffffffffffffffffff16815260200190815260200160002054905090565b6001548161077f9190610db6565b3410156107c1576040517f08c379a00000000000000000000000000000000000000000000000000000000081526004016107b890610e5c565b60405180910390fd5b80600260003073ffffffffffffffffffffffffffffffffffffffff1673ffffffffffffffffffffffffffffffffffffffff168152602001908152602001600020541015610843576040517f08c379a000000000000000000000000000000000000000000000000000000000815260040161083a90610ec8565b60405180910390fd5b80600260003073ffffffffffffffffffffffffffffffffffffffff1673ffffffffffffffffffffffffffffffffffffffff16815260200190815260200160002060008282546108929190610ee8565b9250508190555080600260003373ffffffffffffffffffffffffffffffffffffffff1673ffffffffffffffffffffffffffffffffffffffff16815260200190815260200160002060008282546108e89190610cce565b925050819055503073ffffffffffffffffffffffffffffffffffffffff166108fc349081150290604051600060405180830381858888f19350505050158015610935573d6000803e3d6000fd5b5050565b600080fd5b6000819050919050565b6109518161093e565b811461095c57600080fd5b50565b60008135905061096e81610948565b92915050565b60006020828403121561098a57610989610939565b5b60006109988482850161095f565b91505092915050565b6109aa8161093e565b82525050565b60006020820190506109c560008301846109a1565b92915050565b600073ffffffffffffffffffffffffffffffffffffffff82169050919050565b60006109f6826109cb565b9050919050565b610a06816109eb565b82525050565b6000602082019050610a2160008301846109fd565b92915050565b6000610a32826109cb565b9050919050565b610a4281610a27565b8114610a4d57600080fd5b50565b600081359050610a5f81610a39565b92915050565b600060208284031215610a7b57610a7a610939565b5b6000610a8984828501610a50565b91505092915050565b600082825260208201905092915050565b7f4f6e6c7920746865206f776e65722063616e207769746864726177204574686560008201527f722e000000000000000000000000000000000000000000000000000000000000602082015250565b6000610aff602283610a92565b9150610b0a82610aa3565b604082019050919050565b60006020820190508181036000830152610b2e81610af2565b9050919050565b7f4e6f7420656e6f7567682045746865722062616c616e63650000000000000000600082015250565b6000610b6b601883610a92565b9150610b7682610b35565b602082019050919050565b60006020820190508181036000830152610b9a81610b5e565b9050919050565b7f4f6e6c7920746865206f776e65722063616e207669657720746869732e000000600082015250565b6000610bd7601d83610a92565b9150610be282610ba1565b602082019050919050565b60006020820190508181036000830152610c0681610bca565b9050919050565b7f4f6e6c7920746865206f776e65722063616e20726573746f636b20746869732060008201527f6d616368696e652e000000000000000000000000000000000000000000000000602082015250565b6000610c69602883610a92565b9150610c7482610c0d565b604082019050919050565b60006020820190508181036000830152610c9881610c5c565b9050919050565b7f4e487b7100000000000000000000000000000000000000000000000000000000600052601160045260246000fd5b6000610cd98261093e565b9150610ce48361093e565b9250827fffffffffffffffffffffffffffffffffffffffffffffffffffffffffffffffff03821115610d1957610d18610c9f565b5b828201905092915050565b7f4f6e6c7920746865206f776e65722063616e207570646174652074686520646f60008201527f6e75742070726963652e00000000000000000000000000000000000000000000602082015250565b6000610d80602a83610a92565b9150610d8b82610d24565b604082019050919050565b60006020820190508181036000830152610daf81610d73565b9050919050565b6000610dc18261093e565b9150610dcc8361093e565b9250817fffffffffffffffffffffffffffffffffffffffffffffffffffffffffffffffff0483118215151615610e0557610e04610c9f565b5b828202905092915050565b7f496e73756666696369656e742062616c616e6365000000000000000000000000600082015250565b6000610e46601483610a92565b9150610e5182610e10565b602082019050919050565b60006020820190508181036000830152610e7581610e39565b9050919050565b7f4e6f7420656e6f75676820646f6e75747320696e2073746f636b000000000000600082015250565b6000610eb2601a83610a92565b9150610ebd82610e7c565b602082019050919050565b60006020820190508181036000830152610ee181610ea5565b9050919050565b6000610ef38261093e565b9150610efe8361093e565b925082821015610f1157610f10610c9f565b5b82820390509291505056fea264697066735822122054217e6660ace58e252e07667b7ab2a469b9063bcf133a238bcf13cd3d4d758064736f6c634300080d0033",
  "immutableReferences": {},
  "source": "// SPDX-License-Identifier: MIT\n\npragma solidity ^0.8.11;\n\n/**\n * @title VendingMachine\n * @dev A simple vending machine contract that allows users to purchase donuts using Ether.\n */\ncontract VendingMachine {\n    address payable public owner;                // Address of the contract owner\n    uint256 public donutPrice;                   // Price of one donut in Wei\n    mapping (address  => uint256) public donutBalances; // Donut balances of users\n\n    /**\n     * @dev Constructor to initialize the contract with the initial donut price and an initial donut balance for the contract.\n     * @param _initialDonutPrice The initial price of a single donut in Wei.\n     */\n    constructor(uint256 _initialDonutPrice) {\n        owner = payable(msg.sender);             // Set the contract owner\n        donutPrice = _initialDonutPrice;         // Set the initial donut price\n        donutBalances[address(this)] = 100;      // Set an initial donut balance for the contract\n    }\n\n    /**\n     * @dev Allows the owner to update the donut price.\n     * @param newPrice The new price of a single donut in Wei.\n     */\n    function updateDonutPrice(uint256 newPrice) public {\n        require(msg.sender == owner, \"Only the owner can update the donut price.\");\n        donutPrice = newPrice;\n    }\n\n    /**\n     * @dev Retrieves the current donut balance of the vending machine.\n     * @return The donut balance of the vending machine contract.\n     */\n    function getVendingMachineBalance() public view returns (uint256) {\n        return donutBalances[address(this)];\n    }\n\n    /**\n     * @dev Allows the owner to restock the vending machine with more donuts.\n     * @param amount The amount of donuts to add to the vending machine's balance.\n     */\n    function restock(uint256 amount) public {\n        require(msg.sender == owner, \"Only the owner can restock this machine.\");\n        donutBalances[address(this)] += amount;\n    }\n\n    /**\n     * @dev Allows a user to purchase a specified amount of donuts using Ether.\n     * @param amount The amount of donuts to purchase.\n     */\n    function purchase(uint256 amount) public payable {\n        require(msg.value >= amount * donutPrice, \"Insufficient balance\");\n        require(donutBalances[address(this)] >= amount, \"Not enough donuts in stock\");\n        donutBalances[address(this)] -= amount;\n        donutBalances[msg.sender] += amount;\n        payable(address(this)).transfer(msg.value);\n    }\n\n    /**\n     * @dev Retrieves the donut balance of the caller.\n     * @return The donut balance of the caller.\n     */\n    function myPurchase() public view returns (uint256) {\n        return donutBalances[msg.sender];\n    }\n\n    /**\n     * @dev Retrieves the system ether balance.\n     */\n    function systemBalance() public view returns (uint256) {\n        require(msg.sender == owner, \"Only the owner can withdraw Ether.\");\n        return address(this).balance;\n    }\n\n    /**\n     * @dev Allows the owner to withdraw Ether from the contract.\n     * @param amount The amount of Ether to withdraw.\n     */\n    function withdrawEther(uint256 amount) public {\n        require(msg.sender == owner, \"Only the owner can withdraw Ether.\");\n        require(address(this).balance >= amount, \"Not enough Ether balance\");\n        payable(owner).transfer(amount);\n    }\n\n    /**\n     * @dev Retrieves the Ether balance of the contract owner.\n     * @return The Ether balance of the contract owner.\n     */\n    function ownerEtherBalance() public view returns (uint256) {\n        require(msg.sender == owner, \"Only the owner can view this.\");\n        return owner.balance;\n    }\n\n    /**\n     * @dev Fallback function to receive Ether. Allows the contract to accept incoming Ether payments.\n     */\n    receive() external payable {}\n}\n",
  "sourcePath": "/Users/sujoynath/Desktop/Programming/Solidity/VendingMachine/contracts/VendingMachine.sol",
  "compiler": {
    "name": "solc",
    "version": "0.8.13+commit.abaa5c0e.Emscripten.clang"
  },
  "schemaVersion": "3.4.14",
  "updatedAt": "2023-08-08T16:59:08.191Z",
  "networkType": "ethereum",
  "devdoc": {
    "details": "A simple vending machine contract that allows users to purchase donuts using Ether.",
    "kind": "dev",
    "methods": {
      "constructor": {
        "details": "Constructor to initialize the contract with the initial donut price and an initial donut balance for the contract.",
        "params": {
          "_initialDonutPrice": "The initial price of a single donut in Wei."
        }
      },
      "getVendingMachineBalance()": {
        "details": "Retrieves the current donut balance of the vending machine.",
        "returns": {
          "_0": "The donut balance of the vending machine contract."
        }
      },
      "myPurchase()": {
        "details": "Retrieves the donut balance of the caller.",
        "returns": {
          "_0": "The donut balance of the caller."
        }
      },
      "ownerEtherBalance()": {
        "details": "Retrieves the Ether balance of the contract owner.",
        "returns": {
          "_0": "The Ether balance of the contract owner."
        }
      },
      "purchase(uint256)": {
        "details": "Allows a user to purchase a specified amount of donuts using Ether.",
        "params": {
          "amount": "The amount of donuts to purchase."
        }
      },
      "restock(uint256)": {
        "details": "Allows the owner to restock the vending machine with more donuts.",
        "params": {
          "amount": "The amount of donuts to add to the vending machine's balance."
        }
      },
      "systemBalance()": {
        "details": "Retrieves the system ether balance."
      },
      "updateDonutPrice(uint256)": {
        "details": "Allows the owner to update the donut price.",
        "params": {
          "newPrice": "The new price of a single donut in Wei."
        }
      },
      "withdrawEther(uint256)": {
        "details": "Allows the owner to withdraw Ether from the contract.",
        "params": {
          "amount": "The amount of Ether to withdraw."
        }
      }
    },
    "title": "VendingMachine",
    "version": 1
  },
  "userdoc": {
    "kind": "user",
    "methods": {},
    "version": 1
  }
}