{
  "contractName": "VendingMachine",
  "abi": [
    {
      "inputs": [
        {
          "internalType": "uint256",
          "name": "_initialDonutPrice",
          "type": "uint256"
        }
      ],
      "stateMutability": "nonpayable",
      "type": "constructor"
    },
    {
      "inputs": [
        {
          "internalType": "address",
          "name": "",
          "type": "address"
        }
      ],
      "name": "donutBalances",
      "outputs": [
        {
          "internalType": "uint256",
          "name": "",
          "type": "uint256"
        }
      ],
      "stateMutability": "view",
      "type": "function"
    },
    {
      "inputs": [],
      "name": "donutPrice",
      "outputs": [
        {
          "internalType": "uint256",
          "name": "",
          "type": "uint256"
        }
      ],
      "stateMutability": "view",
      "type": "function"
    },
    {
      "inputs": [],
      "name": "owner",
      "outputs": [
        {
          "internalType": "address payable",
          "name": "",
          "type": "address"
        }
      ],
      "stateMutability": "view",
      "type": "function"
    },
    {
      "stateMutability": "payable",
      "type": "receive"
    },
    {
      "inputs": [
        {
          "internalType": "uint256",
          "name": "newPrice",
          "type": "uint256"
        }
      ],
      "name": "updateDonutPrice",
      "outputs": [],
      "stateMutability": "nonpayable",
      "type": "function"
    },
    {
      "inputs": [],
      "name": "getVendingMachineBalance",
      "outputs": [
        {
          "internalType": "uint256",
          "name": "",
          "type": "uint256"
        }
      ],
      "stateMutability": "view",
      "type": "function"
    },
    {
      "inputs": [
        {
          "internalType": "uint256",
          "name": "amount",
          "type": "uint256"
        }
      ],
      "name": "restock",
      "outputs": [],
      "stateMutability": "nonpayable",
      "type": "function"
    },
    {
      "inputs": [
        {
          "internalType": "uint256",
          "name": "amount",
          "type": "uint256"
        }
      ],
      "name": "purchase",
      "outputs": [],
      "stateMutability": "payable",
      "type": "function"
    },
    {
      "inputs": [],
      "name": "myPurchase",
      "outputs": [
        {
          "internalType": "uint256",
          "name": "",
          "type": "uint256"
        }
      ],
      "stateMutability": "view",
      "type": "function"
    },
    {
      "inputs": [
        {
          "internalType": "uint256",
          "name": "amount",
          "type": "uint256"
        }
      ],
      "name": "withdrawEther",
      "outputs": [],
      "stateMutability": "nonpayable",
      "type": "function"
    },
    {
      "inputs": [],
      "name": "ownerEtherBalance",
      "outputs": [
        {
          "internalType": "uint256",
          "name": "",
          "type": "uint256"
        }
      ],
      "stateMutability": "view",
      "type": "function"
    }
  ],
  "bytecode": "0x608060405234801561001057600080fd5b50604051610fba380380610fba833981810160405281019061003291906100ff565b336000806101000a81548173ffffffffffffffffffffffffffffffffffffffff021916908373ffffffffffffffffffffffffffffffffffffffff160217905550806001819055506064600260003073ffffffffffffffffffffffffffffffffffffffff1673ffffffffffffffffffffffffffffffffffffffff168152602001908152602001600020819055505061012c565b600080fd5b6000819050919050565b6100dc816100c9565b81146100e757600080fd5b50565b6000815190506100f9816100d3565b92915050565b600060208284031215610115576101146100c4565b5b6000610123848285016100ea565b91505092915050565b610e7f8061013b6000396000f3fe6080604052600436106100955760003560e01c8063ce50e60911610059578063ce50e60914610186578063d5c75672146101af578063e31e8f15146101da578063e7644d3414610205578063efef39a1146102305761009c565b80633bed33ce146100a15780638da5cb5b146100ca578063990f7e18146100f55780639a020d8a14610120578063c21a702a1461015d5761009c565b3661009c57005b600080fd5b3480156100ad57600080fd5b506100c860048036038101906100c391906108c7565b61024c565b005b3480156100d657600080fd5b506100df610387565b6040516100ec9190610935565b60405180910390f35b34801561010157600080fd5b5061010a6103ab565b604051610117919061095f565b60405180910390f35b34801561012c57600080fd5b50610147600480360381019061014291906109b8565b610479565b604051610154919061095f565b60405180910390f35b34801561016957600080fd5b50610184600480360381019061017f91906108c7565b610491565b005b34801561019257600080fd5b506101ad60048036038101906101a891906108c7565b610578565b005b3480156101bb57600080fd5b506101c4610610565b6040516101d1919061095f565b60405180910390f35b3480156101e657600080fd5b506101ef610657565b6040516101fc919061095f565b60405180910390f35b34801561021157600080fd5b5061021a61065d565b604051610227919061095f565b60405180910390f35b61024a600480360381019061024591906108c7565b6106a4565b005b60008054906101000a900473ffffffffffffffffffffffffffffffffffffffff1673ffffffffffffffffffffffffffffffffffffffff163373ffffffffffffffffffffffffffffffffffffffff16146102da576040517f08c379a00000000000000000000000000000000000000000000000000000000081526004016102d190610a42565b60405180910390fd5b8047101561031d576040517f08c379a000000000000000000000000000000000000000000000000000000000815260040161031490610aae565b60405180910390fd5b60008054906101000a900473ffffffffffffffffffffffffffffffffffffffff1673ffffffffffffffffffffffffffffffffffffffff166108fc829081150290604051600060405180830381858888f19350505050158015610383573d6000803e3d6000fd5b5050565b60008054906101000a900473ffffffffffffffffffffffffffffffffffffffff1681565b60008060009054906101000a900473ffffffffffffffffffffffffffffffffffffffff1673ffffffffffffffffffffffffffffffffffffffff163373ffffffffffffffffffffffffffffffffffffffff161461043c576040517f08c379a000000000000000000000000000000000000000000000000000000000815260040161043390610b1a565b60405180910390fd5b60008054906101000a900473ffffffffffffffffffffffffffffffffffffffff1673ffffffffffffffffffffffffffffffffffffffff1631905090565b60026020528060005260406000206000915090505481565b60008054906101000a900473ffffffffffffffffffffffffffffffffffffffff1673ffffffffffffffffffffffffffffffffffffffff163373ffffffffffffffffffffffffffffffffffffffff161461051f576040517f08c379a000000000000000000000000000000000000000000000000000000000815260040161051690610bac565b60405180910390fd5b80600260003073ffffffffffffffffffffffffffffffffffffffff1673ffffffffffffffffffffffffffffffffffffffff168152602001908152602001600020600082825461056e9190610bfb565b9250508190555050565b60008054906101000a900473ffffffffffffffffffffffffffffffffffffffff1673ffffffffffffffffffffffffffffffffffffffff163373ffffffffffffffffffffffffffffffffffffffff1614610606576040517f08c379a00000000000000000000000000000000000000000000000000000000081526004016105fd90610cc3565b60405180910390fd5b8060018190555050565b6000600260003373ffffffffffffffffffffffffffffffffffffffff1673ffffffffffffffffffffffffffffffffffffffff16815260200190815260200160002054905090565b60015481565b6000600260003073ffffffffffffffffffffffffffffffffffffffff1673ffffffffffffffffffffffffffffffffffffffff16815260200190815260200160002054905090565b600154816106b29190610ce3565b3410156106f4576040517f08c379a00000000000000000000000000000000000000000000000000000000081526004016106eb90610d89565b60405180910390fd5b80600260003073ffffffffffffffffffffffffffffffffffffffff1673ffffffffffffffffffffffffffffffffffffffff168152602001908152602001600020541015610776576040517f08c379a000000000000000000000000000000000000000000000000000000000815260040161076d90610df5565b60405180910390fd5b80600260003073ffffffffffffffffffffffffffffffffffffffff1673ffffffffffffffffffffffffffffffffffffffff16815260200190815260200160002060008282546107c59190610e15565b9250508190555080600260003373ffffffffffffffffffffffffffffffffffffffff1673ffffffffffffffffffffffffffffffffffffffff168152602001908152602001600020600082825461081b9190610bfb565b9250508190555060008054906101000a900473ffffffffffffffffffffffffffffffffffffffff1673ffffffffffffffffffffffffffffffffffffffff166108fc349081150290604051600060405180830381858888f19350505050158015610888573d6000803e3d6000fd5b5050565b600080fd5b6000819050919050565b6108a481610891565b81146108af57600080fd5b50565b6000813590506108c18161089b565b92915050565b6000602082840312156108dd576108dc61088c565b5b60006108eb848285016108b2565b91505092915050565b600073ffffffffffffffffffffffffffffffffffffffff82169050919050565b600061091f826108f4565b9050919050565b61092f81610914565b82525050565b600060208201905061094a6000830184610926565b92915050565b61095981610891565b82525050565b60006020820190506109746000830184610950565b92915050565b6000610985826108f4565b9050919050565b6109958161097a565b81146109a057600080fd5b50565b6000813590506109b28161098c565b92915050565b6000602082840312156109ce576109cd61088c565b5b60006109dc848285016109a3565b91505092915050565b600082825260208201905092915050565b7f4f6e6c79206f776e65722063616e20776974686472617720746869732e000000600082015250565b6000610a2c601d836109e5565b9150610a37826109f6565b602082019050919050565b60006020820190508181036000830152610a5b81610a1f565b9050919050565b7f4e6f7420656e6f7567682065746865722062616c616e63650000000000000000600082015250565b6000610a986018836109e5565b9150610aa382610a62565b602082019050919050565b60006020820190508181036000830152610ac781610a8b565b9050919050565b7f4f6e6c79206f776e65722063616e207669657720746869732e00000000000000600082015250565b6000610b046019836109e5565b9150610b0f82610ace565b602082019050919050565b60006020820190508181036000830152610b3381610af7565b9050919050565b7f4f6e6c7920746865206f776e65722063616e20726573746f636b20746869732060008201527f6d616368696e652e000000000000000000000000000000000000000000000000602082015250565b6000610b966028836109e5565b9150610ba182610b3a565b604082019050919050565b60006020820190508181036000830152610bc581610b89565b9050919050565b7f4e487b7100000000000000000000000000000000000000000000000000000000600052601160045260246000fd5b6000610c0682610891565b9150610c1183610891565b9250827fffffffffffffffffffffffffffffffffffffffffffffffffffffffffffffffff03821115610c4657610c45610bcc565b5b828201905092915050565b7f4f6e6c7920746865206f776e65722063616e207570646174652074686520646f60008201527f6e75742070726963652e00000000000000000000000000000000000000000000602082015250565b6000610cad602a836109e5565b9150610cb882610c51565b604082019050919050565b60006020820190508181036000830152610cdc81610ca0565b9050919050565b6000610cee82610891565b9150610cf983610891565b9250817fffffffffffffffffffffffffffffffffffffffffffffffffffffffffffffffff0483118215151615610d3257610d31610bcc565b5b828202905092915050565b7f496e73756666696369656e742062616c616e6365000000000000000000000000600082015250565b6000610d736014836109e5565b9150610d7e82610d3d565b602082019050919050565b60006020820190508181036000830152610da281610d66565b9050919050565b7f4e6f20656e6f75676820646f6e757420696e2073746f636b0000000000000000600082015250565b6000610ddf6018836109e5565b9150610dea82610da9565b602082019050919050565b60006020820190508181036000830152610e0e81610dd2565b9050919050565b6000610e2082610891565b9150610e2b83610891565b925082821015610e3e57610e3d610bcc565b5b82820390509291505056fea2646970667358221220966558a037bd5aac8683355e1bbd543bf0a3c7aac9a8f3c29937610789b2d17864736f6c634300080d0033",
  "immutableReferences": {},
  "source": "// SPDX-License-Identifier: MIT\n\npragma solidity ^0.8.11;\n\ncontract VendingMachine {\n    address payable public owner;\n    uint256 public donutPrice;\n    mapping (address  => uint256) public donutBalances;\n\n    constructor(uint256 _initialDonutPrice) {\n        // set owner equal sender\n        owner = payable(msg.sender);\n        // Set the initial donut price\n        donutPrice = _initialDonutPrice;  \n        // address(this) means address of the contract\n        donutBalances[address(this)] = 100;\n    }\n\n    // Update the donut price by the owner\n    function updateDonutPrice(uint256 newPrice) public {\n        require(msg.sender == owner, \"Only the owner can update the donut price.\");\n        donutPrice = newPrice;\n    }\n\n    function getVendingMachineBalance() public view  returns (uint256) {\n        // return the donut amount of smart contract address\n        return donutBalances[address(this)];\n    }\n\n    function restock(uint256 amount) public {\n        // check the sender is owner\n        require(msg.sender == owner, \"Only the owner can restock this machine.\");\n        // increment the donut amount of contract address\n        donutBalances[address(this)] += amount;\n    }\n\n    // payable is used to send any ether to the account\n    function purchase(uint256 amount) public payable {\n        require(msg.value >= amount * donutPrice, \"Insufficient balance\");\n        require(donutBalances[address(this)] >= amount, \"No enough donut in stock\");\n         // decrement the donut amount of contract address\n        donutBalances[address(this)] -= amount;\n        // increment the donut amount of sender\n        donutBalances[msg.sender] += amount;\n        // Send ether to the owner\n        owner.transfer(msg.value); \n    }\n\n    function myPurchase() public view returns(uint256) {\n        return donutBalances[msg.sender];\n    }\n\n    function withdrawEther(uint256 amount) public {\n        require(msg.sender == owner, \"Only owner can withdraw this.\");\n        require(address(this).balance >= amount, \"Not enough ether balance\");\n        payable(owner).transfer(amount);\n    }\n\n    function ownerEtherBalance() public view returns (uint256) {\n        require(msg.sender == owner, \"Only owner can view this.\");\n        return owner.balance;\n    }\n\n    // Fallback function to receive ether\n    receive() external payable {}\n}",
  "sourcePath": "/Users/sujoynath/Desktop/Programming/Solidity/VendingMachine/contracts/VendingMachine.sol",
  "compiler": {
    "name": "solc",
    "version": "0.8.13+commit.abaa5c0e.Emscripten.clang"
  },
  "schemaVersion": "3.4.14",
  "updatedAt": "2023-08-08T04:45:56.761Z",
  "devdoc": {
    "kind": "dev",
    "methods": {},
    "version": 1
  },
  "userdoc": {
    "kind": "user",
    "methods": {},
    "version": 1
  }
}